:03000000020800F3
:0C080000787FE4F6D8FD758109020847F6
:0408FA0002080000F0
:0B08EF00EF1FAC0670011E4C70F622DB
:03000B0002088C5C
:10088C00C0E0C0D0B2B00509E50970020508C394F8
:10089C00F4E50894015008758CFD758A44801BC3DF
:1008AC00E50994B0E50894045008758CFC758A1819
:0F08BC008008C28C750800750900D0D0D0E032DA
:1008CB00C2B075A882758901758CFD758A44D29763
:1008DB002097FB7FE87E031208EF2097F1D28C2044
:0408EB0097EC80FB0B
:10080C000208CBE493A3F8E493A34003F68001F22F
:10081C0008DFF48029E493A3F85407240CC8C333ED
:10082C00C4540F4420C8834004F456800146F6DFBC
:10083C00E4800B01020408102040809008FAE47E4A
:10084C00019360BCA3FF543F30E509541FFEE493B1
:10085C00A360010ECF54C025E060A840B8E493A378
:10086C00FAE493A3F8E493A3C8C582C8CAC583CAA3
:10087C00F0A3C8C582C8CAC583CADFE9DEE780BE5B
:0108FE0000F9
:00000001FF
