:03000000020800F3
:0C080000787FE4F6D8FD75810B020847F4
:0A092200C0F9A4B0999282F8809009
:06092C00010800010B00B0
:0708E40093F5807F057E0003
:1008EB00D3EF9400EE940040147D6E7C00ED1D70F0
:0D08FB00011CED4C70F7EF1F70E61E80E34E
:0109080022CC
:10088C00EF75F00A84F509EF75F00A8485F00AD249
:10089C00B075A004D2B1E5099009221208E4758064
:1008AC00FFD2B075A008D2B1E50A1208E47580FF3A
:0108BC002219
:10090900758901758C3C758AB0D2AFD2A9D28CAFEA
:090919000B12088C850B9080F68E
:03000B000208BD2B
:1008BD00C0E0C0D0C28C0508E508B4140D75080061
:1008CD00050BE50BB46403750B00758C3C758AB094
:0708DD00D28CD0D0D0E03234
:10080C00020909E493A3F8E493A34003F68001F2F0
:10081C0008DFF48029E493A3F85407240CC8C333ED
:10082C00C4540F4420C8834004F456800146F6DFBC
:10083C00E4800B010204081020408090092CE47E17
:10084C00019360BCA3FF543F30E509541FFEE493B1
:10085C00A360010ECF54C025E060A840B8E493A378
:10086C00FAE493A3F8E493A3C8C582C8CAC583CAA3
:10087C00F0A3C8C582C8CAC583CADFE9DEE780BE5B
:0109320000C4
:00000001FF
