:030000000209B33F
:0C09B300787FE4F6D8FD7581090209BFC9
:1009A200C0F9A4B0999282F880908883A7A1868E1C
:0109B200FF45
:04096B007F0A7E0081
:10096F00D3EF9400EE940040147D6E7C00ED1D706B
:0D097F00011CED4C70F7EF1F70E61E80E3C9
:01098C002248
:10098D00D2B075A00FD2B1EF9009A293F5801209E4
:05099D006B7580FF22D4
:100800007590F0E59054F064F070030209681209E5
:100810006BE59054F064F070030209687590FE85F2
:1008200090095309F0E50964F0604412096B859062
:10083000095309F0E50964F06035859009E509245C
:1008400082601B24C0601224E0600924F07012E46E
:10085000F508800D75080180087508028003750889
:1008600003E50964F060088590095309F080F2758A
:1008700090FD8590095309F0E50964F06044120980
:100880006B8590095309F0E50964F060358590099E
:10089000E5092483601B24C0601224E0600924F071
:1008A0007012750804800D750805800875080680AB
:1008B00003750807E50964F060088590095309F09D
:1008C00080F27590FB8590095309F0E50964F060AA
:1008D0004412096B8590095309F0E50964F060350D
:1008E000859009E5092485601B24C0601224E0601E
:1008F0000924F07012750808800D750809800875C4
:10090000080A800375080BE50964F0600885900902
:100910005309F080F27590F78590095309F0E509C5
:1009200064F0604412096B8590095309F0E509648D
:10093000F06035859009E5092489601B24C06012A8
:1009400024E0600924F0701275080C800D75080D04
:10095000800875080E800375080FE50964F06008CB
:0A0960008590095309F080F2AF08FA
:01096A00226A
:0A09BF00120800AF0812098D80F63F
:00000001FF
