:03000000020800F3
:0C080000787FE4F6D8FD75810B020847F4
:0A097E00C0F9A4B0999282F88090AD
:0C097100010B10010A0A01090A0108002C
:10094300D3EF9400EE940040147D6E7C00ED1D7097
:0D095300011CED4C70F7EF1F70E61E80E3F5
:010960002274
:10088C00E4FBEBB40800506490089BF82828730232
:10089C0008B30208BA0208C10208C60208CD020851
:1008AC00D40208DC0208E775A001E50B802775A0CF
:1008BC0002E50B802B75A004801175A008E50A8059
:1008CC001475A010E50A801875A0207580BF801CD7
:1008DC0075A040E50975F00A84800B75A080E509C8
:1008EC0075F00A84E5F090097E93F5807F017E0017
:0908FC001209430BEB640870893A
:0109050022CF
:10096100758901758C3C758AB0D2AFD2A9D28C221F
:03000B00020906E1
:04090600C0E0C0D0BD
:10090A00758C3C758AB0D2AFD2A9D28C0508E5089D
:10091A00B414217508000509E509B43C17750900E6
:10092A00050AE50AB43C0D750A00050BE50BB41877
:04093A0003750B0036
:05093E00D0D0D0E03232
:0809880012096112088C80FBCA
:10080C00020988E493A3F8E493A34003F68001F271
:10081C0008DFF48029E493A3F85407240CC8C333ED
:10082C00C4540F4420C8834004F456800146F6DFBC
:10083C00E4800B0102040810204080900971E47ED2
:10084C00019360BCA3FF543F30E509541FFEE493B1
:10085C00A360010ECF54C025E060A840B8E493A378
:10086C00FAE493A3F8E493A3C8C582C8CAC583CAA3
:10087C00F0A3C8C582C8CAC583CADFE9DEE780BE5B
:01097D000079
:00000001FF
