:030000000208FDF6
:0C08FD00787FE4F6D8FD75810A020944FA
:0309A70001080044
:10098900D3EF9400EE940040147D6E7C00ED1D7051
:0D099900011CED4C70F7EF1F70E61E80E3AF
:0109A600222E
:10080000D2A0D2A175A0AA7F207E0312098975A06B
:10081000557F207E0312098920B2E975A0FFE4F517
:1008200009F50AE5097044E50AB40800503D90084E
:1008300035F828287302084D0208510208550208AD
:100840005902085D020861020865020869C2A080B9
:100850001AC2A18016C2A28012C2A3800EC2A480B6
:100860000AC2A58006C2A68002C2A77FF47E01123A
:10087000098975A0FF050AE50A70020509C39408F5
:10088000E50964809480409B750900750A08E509B4
:100890007044E50AB40800503D9008A0F828287379
:1008A0000208B80208BC0208C00208C40208C80254
:1008B00008CC0208D00208D4C2A0801AC2A18016B7
:1008C000C2A28012C2A3800EC2A4800AC2A5800662
:1008D000C2A68002C2A77FF47E0112098975A0FF1B
:1008E000E50A150A70021509D3E50A9400E50964C2
:0D08F000809480509930B20302080480F813
:10090900020800E493A3F8E493A34003F68001F2FC
:1009190008DFF48029E493A3F85407240CC8C333EF
:10092900C4540F4420C8834004F456800146F6DFBE
:10093900E4800B01020408102040809009A7E47E9E
:10094900019360BCA3FF543F30E509541FFEE493B3
:10095900A360010ECF54C025E060A840B8E493A37A
:10096900FAE493A3F8E493A3C8C582C8CAC583CAA5
:10097900F0A3C8C582C8CAC583CADFE9DEE780BE5D
:0109AA00004C
:00000001FF
