:0300000002096E84
:0C096E00787FE4F6D8FD758109020800CE
:10095D00C0F9A4B0999282F880908883C6A1868E42
:01096D008900
:04093B007FF47E01C6
:10093F00D3EF9400EE940040147D6E7C00ED1D709B
:0D094F00011CED4C70F7EF1F70E61E80E3F9
:01095C002278
:10080000E4F9FB75A0AA7F207E0312093F75A0556D
:100810007F207E0312093F20B323EB70207F14FE5C
:1008200012093F20B31C7B01E4FAEA90095D93F5BD
:100830008012093B0ABA10F27580FF800530B302BE
:10084000E4FB30B203020930E960030209307F148F
:10085000FE12093F20B2AC790175A0FFE4F508F55E
:1008600009E5087044E509B40800503D900873F8A4
:1008700028287302088B02088F0208930208970247
:10088000089B02089F0208A30208A7C2A0801AC200
:10089000A18016C2A28012C2A3800EC2A4800AC286
:1008A000A58006C2A68002C2A712093B75A0FF055B
:1008B00009E50970020508C39408E508648094807E
:1008C000409F750800750908D3E5099400E50864A0
:1008D0008094805003020803E5087044E509B408D9
:1008E00000503D9008EAF828287302090202090620
:1008F00002090A02090E02091202091602091A0265
:10090000091EC2A0801AC2A18016C2A28012C2A370
:10091000800EC2A4800AC2A58006C2A68002C2A719
:1009200012093B75A0FFE5091509709C1508809810
:0B09300020B203020803E4F9020803F0
:00000001FF
