:030000000209737F
:0C097300787FE4F6D8FD758109020800C9
:10096200C0F9A4B0999282F880908883C6A1868E3D
:0109720089FB
:040940007FF47E01C1
:10094400D3EF9400EE940040147D6E7C00ED1D7096
:0D095400011CED4C70F7EF1F70E61E80E3F4
:010961002273
:10080000E4F9FBF58075900175A0AA7F207E0312A4
:10081000094475A0557F207E0312094420B323EBC1
:1008200070207F14FE12094420B31C7B01E4FAEA15
:1008300090096293F5801209400ABA10F27580FFA0
:10084000800530B302E4FB30B203020935E96003EE
:100850000209357F14FE12094420B2AC790175A05B
:10086000FFE4F508F509E5087044E509B40800500F
:100870003D900878F828287302089002089402082E
:100880009802089C0208A00208A40208A80208AC6A
:10089000C2A0801AC2A18016C2A28012C2A3800E7A
:1008A000C2A4800AC2A58006C2A68002C2A71209FD
:1008B0004075A0FF0509E50970020508C39408E525
:1008C0000864809480409F750800750908D3E50985
:1008D0009400E508648094805003020808E50870DD
:1008E00044E509B40800503D9008EFF82828730249
:1008F000090702090B02090F02091302091702096D
:100900001B02091F020923C2A0801AC2A18016C2BD
:10091000A28012C2A3800EC2A4800AC2A58006C211
:10092000A68002C2A712094075A0FFE5091509704B
:100930009C1508809820B203020808E4F902080810
:00000001FF
