:030000000208995A
:0C089900787FE4F6D8FD75810802085550
:0E088A00E4FFFE0FBF00010EEF64C84E70F5D4
:01089800223D
:0808A5008F993099FDC29922E0
:10085500758920758DFD758BFD759840D28E20B7F5
:10086500FD12088A20B7F7AF081208A5E50824018C
:10087500FFE433FE7C007D0A1208008D0820B7DEF8
:0508850012088A80F852
:10080000BC000BBE0029EF8DF084FFADF022E4CCDC
:10081000F875F008EF2FFFEE33FEEC33FCEE9DECA5
:10082000984005FCEE9DFE0FD5F0E9E4CEFD22EDEB
:10083000F8F5F0EE8420D21CFEADF075F008EF2F35
:10084000FFED33FD4007985006D5F0F222C398FD26
:050850000FD5F0EA22C3
:00000001FF
