:0300000002087E75
:0C087E00787FE4F6D8FD7581090208417E
:0A088A00C0F9A4B0999282F88090A2
:10086000D3EF9400EE940040147D6E7C00ED1D707B
:0D087000011CED4C70F7EF1F70E61E80E3D9
:01087D002258
:100800007B04EF75F00A8490088A93F508EF75F081
:100810000A84E5F093F509E4FAD2B08BA0D2B17462
:10082000082AF8E6F5807801AF03EF08800123D8A5
:10083000FDFB7F0A7E001208607580FF0ABA02D9AC
:010840002295
:10084100E4F9AF011208002095107F0A7E0012081A
:0F0851006020950609B96402E4F92095E580FB63
:00000001FF
